{
  "contractName": "DirectTransfer",
  "abi": [
    {
      "constant": true,
      "inputs": [],
      "name": "rupee_to_OurCoin_conversionRate",
      "outputs": [
        {
          "internalType": "uint256",
          "name": "",
          "type": "uint256"
        }
      ],
      "payable": false,
      "stateMutability": "view",
      "type": "function"
    },
    {
      "constant": false,
      "inputs": [
        {
          "internalType": "address",
          "name": "senderBankAddress",
          "type": "address"
        },
        {
          "internalType": "address",
          "name": "receiverBankAddress",
          "type": "address"
        },
        {
          "internalType": "string",
          "name": "senderUser",
          "type": "string"
        },
        {
          "internalType": "string",
          "name": "receiverUser",
          "type": "string"
        },
        {
          "internalType": "uint256",
          "name": "amount",
          "type": "uint256"
        }
      ],
      "name": "sendToForeignBank",
      "outputs": [],
      "payable": false,
      "stateMutability": "nonpayable",
      "type": "function"
    },
    {
      "constant": false,
      "inputs": [
        {
          "internalType": "uint256",
          "name": "rupeeToPutInWallet",
          "type": "uint256"
        }
      ],
      "name": "addRupeeToWallet",
      "outputs": [],
      "payable": false,
      "stateMutability": "nonpayable",
      "type": "function"
    },
    {
      "constant": false,
      "inputs": [
        {
          "internalType": "uint256",
          "name": "rupeeToTakeOutOfWallet",
          "type": "uint256"
        }
      ],
      "name": "debitFromWallet",
      "outputs": [],
      "payable": false,
      "stateMutability": "nonpayable",
      "type": "function"
    },
    {
      "constant": true,
      "inputs": [],
      "name": "getPendingTransactions",
      "outputs": [
        {
          "components": [
            {
              "internalType": "address",
              "name": "senderBankAddress",
              "type": "address"
            },
            {
              "internalType": "address",
              "name": "receiverBankAddress",
              "type": "address"
            },
            {
              "internalType": "string",
              "name": "senderUser",
              "type": "string"
            },
            {
              "internalType": "string",
              "name": "receiverUser",
              "type": "string"
            },
            {
              "internalType": "uint256",
              "name": "amount",
              "type": "uint256"
            },
            {
              "internalType": "uint256",
              "name": "timeStamp",
              "type": "uint256"
            }
          ],
          "internalType": "struct DirectTransfer.Transaction[]",
          "name": "",
          "type": "tuple[]"
        }
      ],
      "payable": false,
      "stateMutability": "view",
      "type": "function"
    },
    {
      "constant": true,
      "inputs": [],
      "name": "getBalance",
      "outputs": [
        {
          "internalType": "uint256",
          "name": "",
          "type": "uint256"
        }
      ],
      "payable": false,
      "stateMutability": "view",
      "type": "function"
    }
  ],
  "bytecode": "0x6080604052600160025534801561001557600080fd5b50610c9e806100256000396000f3fe608060405234801561001057600080fd5b50600436106100625760003560e01c8063048e4a211461006757806312065fe01461008557806382aec0aa146100a3578063a9c21048146100bf578063c57daa8a146100db578063d11db83f146100f7575b600080fd5b61006f610115565b60405161007c9190610ad5565b60405180910390f35b61008d61011b565b60405161009a9190610ad5565b60405180910390f35b6100bd60048036036100b89190810190610864565b610162565b005b6100d960048036036100d4919081019061090b565b610375565b005b6100f560048036036100f0919081019061090b565b6103cf565b005b6100ff61047c565b60405161010c9190610ab3565b60405180910390f35b60025481565b6000600360003373ffffffffffffffffffffffffffffffffffffffff1673ffffffffffffffffffffffffffffffffffffffff16815260200190815260200160002054905090565b61016a6106df565b6040518060c001604052808773ffffffffffffffffffffffffffffffffffffffff1681526020018673ffffffffffffffffffffffffffffffffffffffff168152602001858152602001848152602001838152602001600181525090506000819080600181540180825580915050906001820390600052602060002090600602016000909192909190915060008201518160000160006101000a81548173ffffffffffffffffffffffffffffffffffffffff021916908373ffffffffffffffffffffffffffffffffffffffff16021790555060208201518160010160006101000a81548173ffffffffffffffffffffffffffffffffffffffff021916908373ffffffffffffffffffffffffffffffffffffffff160217905550604082015181600201908051906020019061029e929190610741565b5060608201518160030190805190602001906102bb929190610741565b506080820151816004015560a0820151816005015550505081600360003373ffffffffffffffffffffffffffffffffffffffff1673ffffffffffffffffffffffffffffffffffffffff1681526020019081526020016000206000828254039250508190555081600360008773ffffffffffffffffffffffffffffffffffffffff1673ffffffffffffffffffffffffffffffffffffffff16815260200190815260200160002060008282540192505081905550505050505050565b60006002548202905080600360003373ffffffffffffffffffffffffffffffffffffffff1673ffffffffffffffffffffffffffffffffffffffff168152602001908152602001600020600082825401925050819055505050565b600060025482816103dc57fe5b04905080600360003373ffffffffffffffffffffffffffffffffffffffff1673ffffffffffffffffffffffffffffffffffffffff16815260200190815260200160002054101561042b57600080fd5b80600360003373ffffffffffffffffffffffffffffffffffffffff1673ffffffffffffffffffffffffffffffffffffffff168152602001908152602001600020600082825403925050819055505050565b60606000805480602002602001604051908101604052809291908181526020016000905b828210156106d657838290600052602060002090600602016040518060c00160405290816000820160009054906101000a900473ffffffffffffffffffffffffffffffffffffffff1673ffffffffffffffffffffffffffffffffffffffff1673ffffffffffffffffffffffffffffffffffffffff1681526020016001820160009054906101000a900473ffffffffffffffffffffffffffffffffffffffff1673ffffffffffffffffffffffffffffffffffffffff1673ffffffffffffffffffffffffffffffffffffffff168152602001600282018054600181600116156101000203166002900480601f0160208091040260200160405190810160405280929190818152602001828054600181600116156101000203166002900480156106085780601f106105dd57610100808354040283529160200191610608565b820191906000526020600020905b8154815290600101906020018083116105eb57829003601f168201915b50505050508152602001600382018054600181600116156101000203166002900480601f0160208091040260200160405190810160405280929190818152602001828054600181600116156101000203166002900480156106aa5780601f1061067f576101008083540402835291602001916106aa565b820191906000526020600020905b81548152906001019060200180831161068d57829003601f168201915b5050505050815260200160048201548152602001600582015481525050815260200190600101906104a0565b50505050905090565b6040518060c00160405280600073ffffffffffffffffffffffffffffffffffffffff168152602001600073ffffffffffffffffffffffffffffffffffffffff168152602001606081526020016060815260200160008152602001600081525090565b828054600181600116156101000203166002900490600052602060002090601f016020900481019282601f1061078257805160ff19168380011785556107b0565b828001600101855582156107b0579182015b828111156107af578251825591602001919060010190610794565b5b5090506107bd91906107c1565b5090565b6107e391905b808211156107df5760008160009055506001016107c7565b5090565b90565b6000813590506107f581610c2d565b92915050565b600082601f83011261080c57600080fd5b813561081f61081a82610b1d565b610af0565b9150808252602083016020830185838301111561083b57600080fd5b610846838284610bda565b50505092915050565b60008135905061085e81610c44565b92915050565b600080600080600060a0868803121561087c57600080fd5b600061088a888289016107e6565b955050602061089b888289016107e6565b945050604086013567ffffffffffffffff8111156108b857600080fd5b6108c4888289016107fb565b935050606086013567ffffffffffffffff8111156108e157600080fd5b6108ed888289016107fb565b92505060806108fe8882890161084f565b9150509295509295909350565b60006020828403121561091d57600080fd5b600061092b8482850161084f565b91505092915050565b60006109408383610a05565b905092915050565b61095181610b9e565b82525050565b600061096282610b59565b61096c8185610b7c565b93508360208202850161097e85610b49565b8060005b858110156109ba578484038952815161099b8582610934565b94506109a683610b6f565b925060208a01995050600181019050610982565b50829750879550505050505092915050565b60006109d782610b64565b6109e18185610b8d565b93506109f1818560208601610be9565b6109fa81610c1c565b840191505092915050565b600060c083016000830151610a1d6000860182610948565b506020830151610a306020860182610948565b5060408301518482036040860152610a4882826109cc565b91505060608301518482036060860152610a6282826109cc565b9150506080830151610a776080860182610a95565b5060a0830151610a8a60a0860182610a95565b508091505092915050565b610a9e81610bd0565b82525050565b610aad81610bd0565b82525050565b60006020820190508181036000830152610acd8184610957565b905092915050565b6000602082019050610aea6000830184610aa4565b92915050565b6000604051905081810181811067ffffffffffffffff82111715610b1357600080fd5b8060405250919050565b600067ffffffffffffffff821115610b3457600080fd5b601f19601f8301169050602081019050919050565b6000819050602082019050919050565b600081519050919050565b600081519050919050565b6000602082019050919050565b600082825260208201905092915050565b600082825260208201905092915050565b6000610ba982610bb0565b9050919050565b600073ffffffffffffffffffffffffffffffffffffffff82169050919050565b6000819050919050565b82818337600083830152505050565b60005b83811015610c07578082015181840152602081019050610bec565b83811115610c16576000848401525b50505050565b6000601f19601f8301169050919050565b610c3681610b9e565b8114610c4157600080fd5b50565b610c4d81610bd0565b8114610c5857600080fd5b5056fea365627a7a723158200cbce59789845529ee99e74dbe0028b042d61c84e810d18721b006ef95db001f6c6578706572696d656e74616cf564736f6c63430005100040",
  "source": "pragma solidity >=0.4;\r\n\r\npragma experimental ABIEncoderV2;\r\n\r\ncontract DirectTransfer {\r\n    struct Transaction {\r\n        address senderBankAddress;\r\n        address receiverBankAddress;\r\n        string senderUser;\r\n        string receiverUser;\r\n        uint256 amount;\r\n        uint256 timeStamp;\r\n    }\r\n\r\n    Transaction[] transactions;\r\n    address owner; //who ever is starting the transaction is the owner\r\n\r\n    // Introducing the Rupee to OurCoin conversion rate\r\n    uint256 public rupee_to_OurCoin_conversionRate = 1;\r\n\r\n    //how many OurCoin is there in the sender's wallet\r\n    mapping(address => uint256) walletBalance;\r\n\r\n    function sendToForeignBank(\r\n        address senderBankAddress,\r\n        address receiverBankAddress,\r\n        string memory senderUser,\r\n        string memory receiverUser,\r\n        uint256 amount\r\n    ) public {\r\n        /* Add the amount to the user's balance, call the event associated with a deposit,\r\n       then return the balance of the user */\r\n        Transaction memory transaction =\r\n            Transaction(\r\n                senderBankAddress,\r\n                receiverBankAddress,\r\n                senderUser,\r\n                receiverUser,\r\n                amount,\r\n                1\r\n            );\r\n        transactions.push(transaction);\r\n        walletBalance[msg.sender] -= amount;\r\n        walletBalance[receiverBankAddress] += amount;\r\n    }\r\n\r\n    function addRupeeToWallet(uint256 rupeeToPutInWallet) public {\r\n        uint256 OurCoin_bought =\r\n            rupeeToPutInWallet * rupee_to_OurCoin_conversionRate;\r\n        walletBalance[msg.sender] += OurCoin_bought;\r\n    }\r\n\r\n    function debitFromWallet(uint256 rupeeToTakeOutOfWallet) public {\r\n        uint256 OurCoins =\r\n            rupeeToTakeOutOfWallet / rupee_to_OurCoin_conversionRate;\r\n        require(walletBalance[msg.sender] >= OurCoins);\r\n        walletBalance[msg.sender] -= OurCoins;\r\n        //send the money from this wallet to this particular bank with sendUser and receiverUser info\r\n    }\r\n\r\n    function getPendingTransactions()\r\n        public\r\n        view\r\n        returns (Transaction[] memory)\r\n    {\r\n        //   Transaction[] memory pendingTransactions=new Transaction[](transactions.length+1);\r\n\r\n        //   uint index=0;\r\n        //   for(uint i=0;i<transactions.length;i++)\r\n        //   {\r\n        //       if(transactions[i].timeStamp>timeStampAfterWhichTransactionsArePending)\r\n        //       {\r\n        //           pendingTransactions[index]=transactions[i];\r\n        //           index=index+1;\r\n        //       }\r\n        //   }\r\n        //using in arguments: uint256 timeStampAfterWhichTransactionsArePending\r\n        return transactions;\r\n    }\r\n\r\n    function getBalance() public view returns (uint256) {\r\n        return walletBalance[msg.sender];\r\n    }\r\n}\r\n",
  "sourcePath": "C:/Users/Abhay/Desktop/BE project/contracts/DirectTransfer.sol",
  "compiler": {
    "name": "solc",
    "version": "0.5.16+commit.9c3226ce.Emscripten.clang"
  },
  "schemaVersion": "3.3.4",
  "updatedAt": "2021-02-28T18:46:49.805Z",
  "networkType": "ethereum",
  "devdoc": {
    "methods": {}
  },
  "userdoc": {
    "methods": {}
  }
}