{
  "contractName": "DirectTransfer",
  "abi": [
    {
      "constant": true,
      "inputs": [],
      "name": "rupee_to_OurCoin_conversionRate",
      "outputs": [
        {
          "internalType": "uint256",
          "name": "",
          "type": "uint256"
        }
      ],
      "payable": false,
      "stateMutability": "view",
      "type": "function"
    },
    {
      "constant": false,
      "inputs": [
        {
          "internalType": "address",
          "name": "senderBankAddress",
          "type": "address"
        },
        {
          "internalType": "address",
          "name": "receiverBankAddress",
          "type": "address"
        },
        {
          "internalType": "string",
          "name": "senderUser",
          "type": "string"
        },
        {
          "internalType": "string",
          "name": "receiverUser",
          "type": "string"
        },
        {
          "internalType": "uint256",
          "name": "amount",
          "type": "uint256"
        }
      ],
      "name": "sendToForeignBank",
      "outputs": [],
      "payable": false,
      "stateMutability": "nonpayable",
      "type": "function"
    },
    {
      "constant": false,
      "inputs": [
        {
          "internalType": "uint256",
          "name": "rupeeToPutInWallet",
          "type": "uint256"
        }
      ],
      "name": "addRupeeToWallet",
      "outputs": [],
      "payable": false,
      "stateMutability": "nonpayable",
      "type": "function"
    },
    {
      "constant": false,
      "inputs": [
        {
          "internalType": "uint256",
          "name": "rupeeToTakeOutOfWallet",
          "type": "uint256"
        }
      ],
      "name": "debitFromWallet",
      "outputs": [],
      "payable": false,
      "stateMutability": "nonpayable",
      "type": "function"
    },
    {
      "constant": true,
      "inputs": [],
      "name": "getTransactionLength",
      "outputs": [
        {
          "internalType": "uint256",
          "name": "",
          "type": "uint256"
        }
      ],
      "payable": false,
      "stateMutability": "view",
      "type": "function"
    },
    {
      "constant": true,
      "inputs": [
        {
          "internalType": "uint256",
          "name": "index",
          "type": "uint256"
        }
      ],
      "name": "getTransactionByIndex",
      "outputs": [
        {
          "internalType": "address",
          "name": "",
          "type": "address"
        },
        {
          "internalType": "address",
          "name": "",
          "type": "address"
        },
        {
          "internalType": "string",
          "name": "",
          "type": "string"
        },
        {
          "internalType": "string",
          "name": "",
          "type": "string"
        },
        {
          "internalType": "uint256",
          "name": "",
          "type": "uint256"
        },
        {
          "internalType": "uint256",
          "name": "",
          "type": "uint256"
        }
      ],
      "payable": false,
      "stateMutability": "view",
      "type": "function"
    },
    {
      "constant": true,
      "inputs": [
        {
          "internalType": "address",
          "name": "adrs",
          "type": "address"
        }
      ],
      "name": "getLastPendingTransactionTimestamp",
      "outputs": [
        {
          "internalType": "uint256",
          "name": "",
          "type": "uint256"
        }
      ],
      "payable": false,
      "stateMutability": "view",
      "type": "function"
    },
    {
      "constant": false,
      "inputs": [
        {
          "internalType": "address",
          "name": "adrs",
          "type": "address"
        },
        {
          "internalType": "uint256",
          "name": "timestampToSet",
          "type": "uint256"
        }
      ],
      "name": "setLastPendingTransactionTimestamp",
      "outputs": [],
      "payable": false,
      "stateMutability": "nonpayable",
      "type": "function"
    },
    {
      "constant": true,
      "inputs": [],
      "name": "getBalance",
      "outputs": [
        {
          "internalType": "uint256",
          "name": "",
          "type": "uint256"
        }
      ],
      "payable": false,
      "stateMutability": "view",
      "type": "function"
    }
  ],
  "bytecode": "0x6080604052600160025534801561001557600080fd5b50610d51806100256000396000f3fe608060405234801561001057600080fd5b50600436106100935760003560e01c8063869152e711610066578063869152e7146101205780639196b22914610155578063a9c2104814610173578063af0bd85f1461018f578063c57daa8a146101ab57610093565b8063048e4a211461009857806312065fe0146100b65780635c79ce58146100d457806382aec0aa14610104575b600080fd5b6100a06101c7565b6040516100ad9190610bc1565b60405180910390f35b6100be6101cd565b6040516100cb9190610bc1565b60405180910390f35b6100ee60048036036100e991908101906109c6565b610214565b6040516100fb9190610bc1565b60405180910390f35b61011e600480360361011991908101906109ef565b61025d565b005b61013a60048036036101359190810190610ad2565b61046f565b60405161014c96959493929190610b52565b60405180910390f35b61015d6106e6565b60405161016a9190610bc1565b60405180910390f35b61018d60048036036101889190810190610ad2565b6106f2565b005b6101a960048036036101a49190810190610a96565b61074c565b005b6101c560048036036101c09190810190610ad2565b610794565b005b60025481565b6000600360003373ffffffffffffffffffffffffffffffffffffffff1673ffffffffffffffffffffffffffffffffffffffff16815260200190815260200160002054905090565b6000600460008373ffffffffffffffffffffffffffffffffffffffff1673ffffffffffffffffffffffffffffffffffffffff168152602001908152602001600020549050919050565b610265610841565b6040518060c001604052808773ffffffffffffffffffffffffffffffffffffffff1681526020018673ffffffffffffffffffffffffffffffffffffffff1681526020018581526020018481526020018381526020014281525090506000819080600181540180825580915050906001820390600052602060002090600602016000909192909190915060008201518160000160006101000a81548173ffffffffffffffffffffffffffffffffffffffff021916908373ffffffffffffffffffffffffffffffffffffffff16021790555060208201518160010160006101000a81548173ffffffffffffffffffffffffffffffffffffffff021916908373ffffffffffffffffffffffffffffffffffffffff16021790555060408201518160020190805190602001906103989291906108a3565b5060608201518160030190805190602001906103b59291906108a3565b506080820151816004015560a0820151816005015550505081600360003373ffffffffffffffffffffffffffffffffffffffff1673ffffffffffffffffffffffffffffffffffffffff1681526020019081526020016000206000828254039250508190555081600360008773ffffffffffffffffffffffffffffffffffffffff1673ffffffffffffffffffffffffffffffffffffffff16815260200190815260200160002060008282540192505081905550505050505050565b600080606080600080610480610841565b6000888154811061048d57fe5b90600052602060002090600602016040518060c00160405290816000820160009054906101000a900473ffffffffffffffffffffffffffffffffffffffff1673ffffffffffffffffffffffffffffffffffffffff1673ffffffffffffffffffffffffffffffffffffffff1681526020016001820160009054906101000a900473ffffffffffffffffffffffffffffffffffffffff1673ffffffffffffffffffffffffffffffffffffffff1673ffffffffffffffffffffffffffffffffffffffff168152602001600282018054600181600116156101000203166002900480601f0160208091040260200160405190810160405280929190818152602001828054600181600116156101000203166002900480156105eb5780601f106105c0576101008083540402835291602001916105eb565b820191906000526020600020905b8154815290600101906020018083116105ce57829003601f168201915b50505050508152602001600382018054600181600116156101000203166002900480601f01602080910402602001604051908101604052809291908181526020018280546001816001161561010002031660029004801561068d5780601f106106625761010080835404028352916020019161068d565b820191906000526020600020905b81548152906001019060200180831161067057829003601f168201915b50505050508152602001600482015481526020016005820154815250509050806000015181602001518260400151836060015184608001518560a001518393508292509650965096509650965096505091939550919395565b60008080549050905090565b60006002548202905080600360003373ffffffffffffffffffffffffffffffffffffffff1673ffffffffffffffffffffffffffffffffffffffff168152602001908152602001600020600082825401925050819055505050565b80600460008473ffffffffffffffffffffffffffffffffffffffff1673ffffffffffffffffffffffffffffffffffffffff168152602001908152602001600020819055505050565b600060025482816107a157fe5b04905080600360003373ffffffffffffffffffffffffffffffffffffffff1673ffffffffffffffffffffffffffffffffffffffff1681526020019081526020016000205410156107f057600080fd5b80600360003373ffffffffffffffffffffffffffffffffffffffff1673ffffffffffffffffffffffffffffffffffffffff168152602001908152602001600020600082825403925050819055505050565b6040518060c00160405280600073ffffffffffffffffffffffffffffffffffffffff168152602001600073ffffffffffffffffffffffffffffffffffffffff168152602001606081526020016060815260200160008152602001600081525090565b828054600181600116156101000203166002900490600052602060002090601f016020900481019282601f106108e457805160ff1916838001178555610912565b82800160010185558215610912579182015b828111156109115782518255916020019190600101906108f6565b5b50905061091f9190610923565b5090565b61094591905b80821115610941576000816000905550600101610929565b5090565b90565b60008135905061095781610ce0565b92915050565b600082601f83011261096e57600080fd5b813561098161097c82610c09565b610bdc565b9150808252602083016020830185838301111561099d57600080fd5b6109a8838284610c8d565b50505092915050565b6000813590506109c081610cf7565b92915050565b6000602082840312156109d857600080fd5b60006109e684828501610948565b91505092915050565b600080600080600060a08688031215610a0757600080fd5b6000610a1588828901610948565b9550506020610a2688828901610948565b945050604086013567ffffffffffffffff811115610a4357600080fd5b610a4f8882890161095d565b935050606086013567ffffffffffffffff811115610a6c57600080fd5b610a788882890161095d565b9250506080610a89888289016109b1565b9150509295509295909350565b60008060408385031215610aa957600080fd5b6000610ab785828601610948565b9250506020610ac8858286016109b1565b9150509250929050565b600060208284031215610ae457600080fd5b6000610af2848285016109b1565b91505092915050565b610b0481610c51565b82525050565b6000610b1582610c35565b610b1f8185610c40565b9350610b2f818560208601610c9c565b610b3881610ccf565b840191505092915050565b610b4c81610c83565b82525050565b600060c082019050610b676000830189610afb565b610b746020830188610afb565b8181036040830152610b868187610b0a565b90508181036060830152610b9a8186610b0a565b9050610ba96080830185610b43565b610bb660a0830184610b43565b979650505050505050565b6000602082019050610bd66000830184610b43565b92915050565b6000604051905081810181811067ffffffffffffffff82111715610bff57600080fd5b8060405250919050565b600067ffffffffffffffff821115610c2057600080fd5b601f19601f8301169050602081019050919050565b600081519050919050565b600082825260208201905092915050565b6000610c5c82610c63565b9050919050565b600073ffffffffffffffffffffffffffffffffffffffff82169050919050565b6000819050919050565b82818337600083830152505050565b60005b83811015610cba578082015181840152602081019050610c9f565b83811115610cc9576000848401525b50505050565b6000601f19601f8301169050919050565b610ce981610c51565b8114610cf457600080fd5b50565b610d0081610c83565b8114610d0b57600080fd5b5056fea365627a7a72315820c23a4961f328d800ff0d1430c46602a1733c45393cdb9c55d9b1f26c7d0fc93b6c6578706572696d656e74616cf564736f6c63430005100040",
  "source": "pragma solidity >=0.4;\r\n\r\npragma experimental ABIEncoderV2;\r\n\r\ncontract DirectTransfer {\r\n    struct Transaction {\r\n        address senderBankAddress;\r\n        address receiverBankAddress;\r\n        string senderUser;\r\n        string receiverUser;\r\n        uint256 amount;\r\n        uint256 timeStamp;\r\n    }\r\n\r\n    Transaction[] transactions;\r\n   \r\n    address owner; //who ever is starting the transaction is the owner\r\n\r\n    // Introducing the Rupee to OurCoin conversion rate\r\n    uint256 public rupee_to_OurCoin_conversionRate = 1;\r\n\r\n    //how many OurCoin is there in the sender's wallet\r\n    mapping(address => uint256) walletBalance;\r\n    mapping(address=>uint) lastTimestamp;\r\n\r\n    function sendToForeignBank(\r\n        address senderBankAddress,\r\n        address receiverBankAddress,\r\n        string memory senderUser,\r\n        string memory receiverUser,\r\n        uint256 amount\r\n    ) public {\r\n        /* Add the amount to the user's balance, call the event associated with a deposit,\r\n       then return the balance of the user */\r\n        Transaction memory transaction =\r\n            Transaction(\r\n                senderBankAddress,\r\n                receiverBankAddress,\r\n                senderUser,\r\n                receiverUser,\r\n                amount,\r\n                block.timestamp\r\n            );\r\n        transactions.push(transaction);\r\n        walletBalance[msg.sender] -= amount;\r\n        walletBalance[receiverBankAddress] += amount;\r\n    }\r\n\r\n    function addRupeeToWallet(uint256 rupeeToPutInWallet) public {\r\n        uint256 OurCoin_bought =\r\n            rupeeToPutInWallet * rupee_to_OurCoin_conversionRate;\r\n        walletBalance[msg.sender] += OurCoin_bought;\r\n    }\r\n\r\n    function debitFromWallet(uint256 rupeeToTakeOutOfWallet) public {\r\n        uint256 OurCoins =\r\n            rupeeToTakeOutOfWallet / rupee_to_OurCoin_conversionRate;\r\n        require(walletBalance[msg.sender] >= OurCoins);\r\n        walletBalance[msg.sender] -= OurCoins;\r\n        //send the money from this wallet to this particular bank with sendUser and receiverUser info\r\n    }\r\n\r\n     function getTransactionLength() public view  returns (uint)\r\n    {\r\n        // setPendingTransactions();   \r\n        return transactions.length;\r\n\r\n    }\r\n\r\n    function getTransactionByIndex(uint index) public view returns(address,address,string memory,string memory,uint,uint)\r\n    {\r\n        Transaction memory t=transactions[index];\r\n            return (t.senderBankAddress,t.receiverBankAddress,t.senderUser,t.receiverUser,t.amount,t.timeStamp);\r\n    }\r\n\r\n    function getLastPendingTransactionTimestamp(address adrs) public view returns(uint)\r\n    {\r\n        return lastTimestamp[adrs];\r\n    }\r\n\r\n    function setLastPendingTransactionTimestamp(address adrs,uint timestampToSet) public \r\n    {\r\n        lastTimestamp[adrs]=timestampToSet;\r\n    }\r\n    // function setPendingTransactions ()  public\r\n    // {\r\n    //       uint timeStampAfterWhichTransactionsArePending=lastTimestamp[msg.sender];\r\n    //       pendingTransactions=new Transaction[](transactions.length);\r\n\r\n    //       uint index=0;\r\n    //       for(uint i=0;i<transactions.length;i++)\r\n    //       {\r\n    //           if(transactions[i].receiverBankAddress!=msg.sender) continue;\r\n\r\n    //           if(transactions[i].timeStamp>timeStampAfterWhichTransactionsArePending)\r\n    //           {\r\n    //               pendingTransactions[index]=transactions[i];\r\n    //               index=index+1;\r\n    //           }\r\n    //       }\r\n\r\n    //       pendingTransactionsLength=index;\r\n    //     //using in arguments: uint256 timeStampAfterWhichTransactionsArePending\r\n         \r\n    // }\r\n\r\n\r\n\r\n\r\n    function getBalance() public view returns (uint256) {\r\n        return walletBalance[msg.sender];\r\n    }\r\n}\r\n\r\n// gett length from transaction\r\n// 3\r\n// 0\r\n",
  "sourcePath": "C:/Users/Abhay/Desktop/BE project/contracts/DirectTransfer.sol",
  "compiler": {
    "name": "solc",
    "version": "0.5.16+commit.9c3226ce.Emscripten.clang"
  },
  "schemaVersion": "3.3.4",
  "updatedAt": "2021-03-01T16:40:43.351Z",
  "networkType": "ethereum",
  "devdoc": {
    "methods": {}
  },
  "userdoc": {
    "methods": {}
  }
}