{
  "contractName": "EventTickets",
  "abi": [
    {
      "inputs": [],
      "payable": true,
      "stateMutability": "payable",
      "type": "constructor"
    },
    {
      "anonymous": false,
      "inputs": [
        {
          "indexed": false,
          "internalType": "address payable",
          "name": "_from",
          "type": "address"
        },
        {
          "indexed": false,
          "internalType": "uint256",
          "name": "_amount",
          "type": "uint256"
        }
      ],
      "name": "Deposit",
      "type": "event"
    },
    {
      "anonymous": false,
      "inputs": [
        {
          "indexed": false,
          "internalType": "address payable",
          "name": "_to",
          "type": "address"
        },
        {
          "indexed": false,
          "internalType": "uint256",
          "name": "_amount",
          "type": "uint256"
        }
      ],
      "name": "Refund",
      "type": "event"
    },
    {
      "anonymous": false,
      "inputs": [
        {
          "indexed": false,
          "internalType": "address payable",
          "name": "_sender",
          "type": "address"
        },
        {
          "indexed": false,
          "internalType": "uint256",
          "name": "_value",
          "type": "uint256"
        }
      ],
      "name": "ValidationsPassed",
      "type": "event"
    },
    {
      "constant": true,
      "inputs": [],
      "name": "numRegistrants",
      "outputs": [
        {
          "internalType": "uint256",
          "name": "",
          "type": "uint256"
        }
      ],
      "payable": false,
      "stateMutability": "view",
      "type": "function"
    },
    {
      "constant": true,
      "inputs": [],
      "name": "organizer",
      "outputs": [
        {
          "internalType": "address payable",
          "name": "",
          "type": "address"
        }
      ],
      "payable": false,
      "stateMutability": "view",
      "type": "function"
    },
    {
      "constant": true,
      "inputs": [],
      "name": "quota",
      "outputs": [
        {
          "internalType": "uint256",
          "name": "",
          "type": "uint256"
        }
      ],
      "payable": false,
      "stateMutability": "view",
      "type": "function"
    },
    {
      "constant": true,
      "inputs": [
        {
          "internalType": "address",
          "name": "",
          "type": "address"
        }
      ],
      "name": "registrantsPaid",
      "outputs": [
        {
          "internalType": "uint256",
          "name": "",
          "type": "uint256"
        }
      ],
      "payable": false,
      "stateMutability": "view",
      "type": "function"
    },
    {
      "constant": false,
      "inputs": [],
      "name": "buyTicket",
      "outputs": [],
      "payable": true,
      "stateMutability": "payable",
      "type": "function"
    },
    {
      "constant": false,
      "inputs": [
        {
          "internalType": "uint256",
          "name": "newquota",
          "type": "uint256"
        }
      ],
      "name": "changeQuota",
      "outputs": [],
      "payable": false,
      "stateMutability": "nonpayable",
      "type": "function"
    },
    {
      "constant": false,
      "inputs": [
        {
          "internalType": "address payable",
          "name": "recipient",
          "type": "address"
        },
        {
          "internalType": "uint256",
          "name": "amount",
          "type": "uint256"
        }
      ],
      "name": "refundTicket",
      "outputs": [],
      "payable": false,
      "stateMutability": "nonpayable",
      "type": "function"
    },
    {
      "constant": false,
      "inputs": [],
      "name": "destroy",
      "outputs": [],
      "payable": false,
      "stateMutability": "nonpayable",
      "type": "function"
    }
  ],
  "bytecode": "0x6080604052336000806101000a81548173ffffffffffffffffffffffffffffffffffffffff021916908373ffffffffffffffffffffffffffffffffffffffff1602179055506064600381905550600060028190555061080f806100636000396000f3fe60806040526004361061007b5760003560e01c8063a977c71e1161004e578063a977c71e146101ae578063cebe09c9146101e9578063ec3a6f7314610214578063edca914c1461023f5761007b565b806313381fbf1461008057806361203265146100e5578063705099b91461013c57806383197ef014610197575b600080fd5b34801561008c57600080fd5b506100cf600480360360208110156100a357600080fd5b81019080803573ffffffffffffffffffffffffffffffffffffffff169060200190929190505050610249565b6040518082815260200191505060405180910390f35b3480156100f157600080fd5b506100fa610261565b604051808273ffffffffffffffffffffffffffffffffffffffff1673ffffffffffffffffffffffffffffffffffffffff16815260200191505060405180910390f35b34801561014857600080fd5b506101956004803603604081101561015f57600080fd5b81019080803573ffffffffffffffffffffffffffffffffffffffff16906020019092919080359060200190929190505050610286565b005b3480156101a357600080fd5b506101ac6104af565b005b3480156101ba57600080fd5b506101e7600480360360208110156101d157600080fd5b81019080803590602001909291905050506105ad565b005b3480156101f557600080fd5b506101fe610687565b6040518082815260200191505060405180910390f35b34801561022057600080fd5b5061022961068d565b6040518082815260200191505060405180910390f35b610247610693565b005b60016020528060005260406000206000915090505481565b6000809054906101000a900473ffffffffffffffffffffffffffffffffffffffff1681565b6000809054906101000a900473ffffffffffffffffffffffffffffffffffffffff1673ffffffffffffffffffffffffffffffffffffffff163373ffffffffffffffffffffffffffffffffffffffff16146102df57600080fd5b7fb3f60b83d9c0e6c40cb1a2e232f3a90dfd32faf6146c1e189b59aacb21e295b13382604051808373ffffffffffffffffffffffffffffffffffffffff1673ffffffffffffffffffffffffffffffffffffffff1681526020018281526020019250505060405180910390a180600160008473ffffffffffffffffffffffffffffffffffffffff1673ffffffffffffffffffffffffffffffffffffffff16815260200190815260200160002054106104ab578047106104aa578173ffffffffffffffffffffffffffffffffffffffff166108fc829081150290604051600060405180830381858888f193505050501580156103dd573d6000803e3d6000fd5b507fbb28353e4598c3b9199101a66e0989549b659a59a54d2c27fbb183f1932c8e6d8282604051808373ffffffffffffffffffffffffffffffffffffffff1673ffffffffffffffffffffffffffffffffffffffff1681526020018281526020019250505060405180910390a180600160008473ffffffffffffffffffffffffffffffffffffffff1673ffffffffffffffffffffffffffffffffffffffff16815260200190815260200160002060008282540392505081905550600260008154809291906001900391905055505b5b5050565b6000809054906101000a900473ffffffffffffffffffffffffffffffffffffffff1673ffffffffffffffffffffffffffffffffffffffff163373ffffffffffffffffffffffffffffffffffffffff161461050857600080fd5b7fb3f60b83d9c0e6c40cb1a2e232f3a90dfd32faf6146c1e189b59aacb21e295b13347604051808373ffffffffffffffffffffffffffffffffffffffff1673ffffffffffffffffffffffffffffffffffffffff1681526020018281526020019250505060405180910390a16000809054906101000a900473ffffffffffffffffffffffffffffffffffffffff1673ffffffffffffffffffffffffffffffffffffffff16ff5b6000809054906101000a900473ffffffffffffffffffffffffffffffffffffffff1673ffffffffffffffffffffffffffffffffffffffff163373ffffffffffffffffffffffffffffffffffffffff161480156106095750600081115b61061257600080fd5b7fb3f60b83d9c0e6c40cb1a2e232f3a90dfd32faf6146c1e189b59aacb21e295b13382604051808373ffffffffffffffffffffffffffffffffffffffff1673ffffffffffffffffffffffffffffffffffffffff1681526020018281526020019250505060405180910390a18060038190555050565b60035481565b60025481565b600354600254106106a357600080fd5b7fb3f60b83d9c0e6c40cb1a2e232f3a90dfd32faf6146c1e189b59aacb21e295b13334604051808373ffffffffffffffffffffffffffffffffffffffff1673ffffffffffffffffffffffffffffffffffffffff1681526020018281526020019250505060405180910390a134600160003373ffffffffffffffffffffffffffffffffffffffff1673ffffffffffffffffffffffffffffffffffffffff168152602001908152602001600020600082825401925050819055506002600081548092919060010191905055507fe1fffcc4923d04b559f4d29a8bfc6cda04eb5b0d3c460751c2402c5c5cc9109c3334604051808373ffffffffffffffffffffffffffffffffffffffff1673ffffffffffffffffffffffffffffffffffffffff1681526020018281526020019250505060405180910390a156fea265627a7a7231582096af65e65616c07dc61d868f8544af72e0f63b2b61b6ccbb59cd1e064c3c3dbd64736f6c63430005100032",
  "source": "pragma solidity ^0.5.8;\r\n\r\ncontract EventTickets {\r\n    address payable public organizer;\r\n    mapping(address => uint256) public registrantsPaid;\r\n    uint256 public numRegistrants;\r\n    uint256 public quota;\r\n\r\n    event Deposit(address payable _from, uint256 _amount); // log\r\n    event Refund(address payable _to, uint256 _amount); // log\r\n    event ValidationsPassed(address payable _sender, uint256 _value); // log\r\n\r\n    // constructor\r\n    constructor() public payable {\r\n        organizer = msg.sender;\r\n        quota = 100;\r\n        numRegistrants = 0;\r\n    }\r\n\r\n    function buyTicket() public payable {\r\n        require(numRegistrants < quota);\r\n        emit ValidationsPassed(msg.sender, msg.value);\r\n        registrantsPaid[msg.sender] += msg.value;\r\n        numRegistrants++;\r\n        emit Deposit(msg.sender, msg.value);\r\n    }\r\n\r\n    function changeQuota(uint256 newquota) public {\r\n        require(msg.sender == organizer && newquota > 0);\r\n        emit ValidationsPassed(msg.sender, newquota);\r\n        quota = newquota;\r\n    }\r\n\r\n    function refundTicket(address payable recipient, uint256 amount) public {\r\n        require(msg.sender == organizer);\r\n        emit ValidationsPassed(msg.sender, amount);\r\n        if (registrantsPaid[recipient] >= amount) {\r\n            if (address(this).balance >= amount) {\r\n                recipient.transfer(amount);\r\n                emit Refund(recipient, amount);\r\n                registrantsPaid[recipient] -= amount;\r\n                numRegistrants--;\r\n            }\r\n        }\r\n        return;\r\n    }\r\n\r\n    function destroy() public {\r\n        require(msg.sender == organizer);\r\n        emit ValidationsPassed(msg.sender, address(this).balance);\r\n        selfdestruct(organizer);\r\n    }\r\n}\r\n",
  "sourcePath": "C:/Users/Abhay/Desktop/BE project/contracts/EventTickets.sol",
  "compiler": {
    "name": "solc",
    "version": "0.5.16+commit.9c3226ce.Emscripten.clang"
  },
  "schemaVersion": "3.3.4",
  "updatedAt": "2021-02-27T12:05:04.625Z",
  "networkType": "ethereum",
  "devdoc": {
    "methods": {}
  },
  "userdoc": {
    "methods": {}
  }
}